:100000000C9462000C948A000C948A000C948A0070
:100010000C948A000C948A000C948A000C948A0038
:100020000C948A000C948A000C948A000C948A0028
:100030000C948A000C948A000C948A000C948A0018
:100040000C94A1030C948A000C946F030C94490344
:100050000C948A000C948A000C948A000C948A00F8
:100060000C948A000C948A000000000024002700F1
:100070002A0000000000250028002B0000000000DE
:1000800023002600290004040404040404040202DA
:100090000202020203030303030301020408102007
:1000A0004080010204081020010204081020000012
:1000B0000008000201000003040700000000000027
:1000C0000000080511241FBECFEFD8E0DEBFCDBF72
:1000D00011E0A0E0B1E0E8ECFAE002C005900D927A
:1000E000A834B107D9F721E0A8E4B1E001C01D921E
:1000F000A23FB207E1F710E0C2E6D0E004C02197CA
:10010000FE010E945705C136D107C9F70E94EB03D3
:100110000C9462050C940000CF92DF92EF92FF9254
:100120000F931F93CF93DF936C017A018B01C0E093
:10013000D0E0CE15DF0589F0D8016D918D01D60193
:10014000ED91FC910190F081E02DC6010995892B7C
:1001500011F47E0102C02196ECCFC701DF91CF914F
:100160001F910F91FF90EF90DF90CF900895089529
:1001700080E090E00895FC01538D448D252F30E000
:10018000842F90E0821B930B541710F0CF960895A4
:1001900001970895FC01918D828D981761F0828DF1
:1001A000DF01A80FB11D5D968C91928D9F5F9F73AB
:1001B000928F90E008958FEF9FEF0895FC01918D4D
:1001C000828D981731F0828DE80FF11D858D90E0BA
:1001D00008958FEF9FEF0895FC01918D228D892F57
:1001E00090E0805C9F4F821B91098F73992708953F
:1001F00085E591E00E94EC0021E0892B09F420E0E4
:10020000822F0895FC01848DDF01A80FB11DA35A30
:10021000BF4F2C91848D90E001968F739927848F26
:10022000A689B7892C93A089B1898C9180648C931D
:10023000938D848D981306C00288F389E02D808108
:100240008F7D80830895EF92FF920F931F93CF933A
:10025000DF93EC0181E0888F9B8D8C8D981305C016
:10026000E889F989808185FD24C0F62E0B8D10E088
:100270000F5F1F4F0F731127E02E8C8DE8120CC0FB
:100280000FB607FCFACFE889F989808185FFF5CFA1
:10029000CE010E940201F1CF8B8DFE01E80FF11D0E
:1002A000E35AFF4FF0820B8FEA89FB8980818062DD
:1002B00007C0EE89FF896083E889F98980818064BD
:1002C000808381E090E0DF91CF911F910F91FF90AB
:1002D000EF900895CF93DF93EC01888D8823C9F0C8
:1002E000EA89FB89808185FD05C0A889B9898C913F
:1002F00086FD0FC00FB607FCF5CF808185FFF2CFDA
:10030000A889B9898C9185FFEDCFCE010E940201A9
:10031000E7CFDF91CF91089580E090E0892B29F01D
:100320000E94F80081110C9400000895833081F040
:1003300028F4813099F08230A1F008958730A9F037
:100340008830B9F08430D1F4809180008F7D03C073
:10035000809180008F7780938000089584B58F7797
:1003600002C084B58F7D84BD08958091B0008F77E1
:1003700003C08091B0008F7D8093B0000895CF932B
:10038000DF93282F30E0F901E255FF4F8491F90106
:10039000E656FF4FD491F901EA57FF4FC491CC23A1
:1003A00091F081110E949601EC2FF0E0EE0FFF1FFB
:1003B000E458FF4FA591B491EC91ED2381E090E0DA
:1003C00021F480E002C080E090E0DF91CF910895B9
:1003D0001F93CF93DF93282F30E0F901E255FF4FB1
:1003E0008491F901E656FF4FD491F901EA57FF4F86
:1003F000C491CC23C9F0162F81110E949601EC2FD5
:10040000F0E0EE0FFF1FEE58FF4FA591B4918FB7AC
:10041000F894111105C09C91ED2FE095E92302C0DD
:10042000EC91ED2BEC938FBFDF91CF911F9108954D
:10043000CF93DF9390E0FC01E656FF4F2491FC013F
:10044000EA57FF4F8491882361F190E0880F991F4C
:10045000FC01E859FF4FC591D491FC01EE58FF4FC4
:10046000A591B491611109C09FB7F8948881209536
:1004700082238883EC912E230BC0623061F49FB7F6
:10048000F8943881822F809583238883EC912E2BDA
:100490002C939FBF06C08FB7F894E8812E2B28833A
:1004A0008FBFDF91CF9108953FB7F89480914D01B0
:1004B00090914E01A0914F01B091500126B5A89B9B
:1004C00005C02F3F19F00196A11DB11D3FBFBA2FE6
:1004D000A92F982F8827820F911DA11DB11DBC0146
:1004E000CD0142E0660F771F881F991F4A95D1F70B
:1004F00008958F929F92AF92BF92CF92DF92EF9228
:10050000FF926B017C010E9454024B015C01C114FB
:10051000D104E104F104F1F00E945402DC01CB01AA
:1005200088199909AA09BB09883E9340A105B1051C
:1005300070F321E0C21AD108E108F10888EE880EB4
:1005400083E0981EA11CB11CC114D104E104F10484
:1005500019F7DDCFFF90EF90DF90CF90BF90AF9075
:100560009F908F900895009769F0FC010190002002
:10057000E9F73197AF01481B590BBC0185E591E0C4
:100580000C948C0080E090E008958F929F92AF923F
:10059000BF92CF92DF92EF92FF920F931F93CF9370
:1005A000DF93CDB7DEB7A1970FB6F894DEBF0FBECD
:1005B000CDBF6C01990FEE08FF08F7FE31C0E09146
:1005C0005501F09156010190F081E02D6DE285E535
:1005D00091E009958C0122273327A9012C193D09A7
:1005E0004E095F0919A2CE0181967C019AE0892EFD
:1005F000912CA12CB12CCA01B901A50194010E9432
:100600003505605DF70162937F01211531054105D4
:10061000510589F7CF010E94B302080F191F1EC0B0
:10062000A701960119A28E010F5D1F4F8AE0C82E07
:10063000D12CE12CF12CCA01B901A70196010E942D
:100640003505605DF80162938F0121153105410583
:10065000510589F7CF010E94B3028C0182E191E03C
:100660000E94B302800F911FA1960FB6F894DEBFCF
:100670000FBECDBFDF91CF911F910F91FF90EF90F3
:10068000DF90CF90BF90AF909F908F9008950E9481
:100690005D051F920F920FB60F9211242F933F9377
:1006A0004F935F936F937F938F939F93AF93BF937A
:1006B000EF93FF9385E591E00E940201FF91EF9196
:1006C000BF91AF919F918F917F916F915F914F916A
:1006D0003F912F910F900FBE0F901F9018951F9272
:1006E0000F920FB60F9211242F938F939F93EF9336
:1006F000FF93E0916501F09166018081E0916B01CB
:10070000F0916C0182FD12C0908180916E018F5F2B
:100710008F7320916F01821751F0E0916E01F0E02C
:10072000EB5AFE4F958F80936E0101C08081FF913F
:10073000EF919F918F912F910F900FBE0F901F906F
:1007400018951F920F920FB60F9211242F933F937B
:100750008F939F93AF93BF938091490190914A01EA
:10076000A0914B01B0914C013091480123E0230F3F
:100770002D3720F40196A11DB11D05C026E8230FD9
:100780000296A11DB11D20934801809349019093C9
:100790004A01A0934B01B0934C0180914D0190917F
:1007A0004E01A0914F01B09150010196A11DB11DC4
:1007B00080934D0190934E01A0934F01B09350014F
:1007C000BF91AF919F918F913F912F910F900FBE4D
:1007D0000F901F901895789484B5826084BD84B57D
:1007E000816084BD85B5826085BD85B5816085BD2C
:1007F00080916E00816080936E00109281008091E4
:10080000810082608093810080918100816080936B
:100810008100809180008160809380008091B10090
:1008200084608093B1008091B00081608093B000BB
:1008300080917A00846080937A0080917A0082604F
:1008400080937A0080917A00816080937A00809111
:100850007A00806880937A001092C10061E086E09F
:100860000E94180261E087E00E94180261E085E0C2
:100870000E94180261E084E00E94180260E083E0B8
:100880000E94180260E082E00E941802E091650177
:10089000F091660182E08083E0916101F091620154
:1008A0001082E0916301F09164018FEC80831092DB
:1008B0006D01E0916901F0916A0186E08083E09129
:1008C0006701F0916801808180618083E091670118
:1008D000F0916801808188608083E0916701F091E8
:1008E0006801808180688083E0916701F0916801F0
:1008F00080818F7D808382E00E94BF0190935401AC
:100900008093530183E00E94BF0190935201809332
:10091000510185E191E00E94B302809151019091D3
:1009200052010E94C50281E291E00E94B3028091CF
:100930005301909154010E94C5028DE291E00E9402
:10094000B30282E191E00E94B30280915301909141
:1009500054010097C1F48091510190915201009788
:1009600031F461E086E00E94E80160E007C0019791
:1009700001F561E086E00E94E80161E087E00E9405
:10098000E80161E01FC00197A1F4809151019091AD
:100990005201892B71F461E086E00E94E80160E079
:1009A00087E00E94E80161E085E00E94E80161E0E3
:1009B0000DC060E086E00E94E80160E087E00E94F0
:1009C000E80160E085E00E94E80160E084E00E94C8
:1009D000E80169E170E080E090E00E94790260E067
:1009E00086E00E94E80160E087E00E94E80160E0A4
:1009F00085E00E94E80160E084E00E94E80162E393
:100A000070E080E090E00E9479020E948C0173CF38
:100A1000E5E5F1E01382128288EE93E0A0E0B0E019
:100A200084839583A683B78384E091E09183808358
:100A300085EC90E09587848784EC90E097878687A3
:100A400080EC90E0918B808B81EC90E0938B828B9B
:100A500082EC90E0958B848B86EC90E0978B868B74
:100A6000118E128E138E148E0895A1E21A2EAA1BD7
:100A7000BB1BFD010DC0AA1FBB1FEE1FFF1FA2174E
:100A8000B307E407F50720F0A21BB30BE40BF50B4B
:100A9000661F771F881F991F1A9469F760957095D4
:100AA000809590959B01AC01BD01CF010895EE0F9B
:100AB000FF1F0590F491E02D099481E090E0F894F7
:080AC0000C946205F894FFCFCD
:100AC8000000000023018C00BB006A01EC00CA0092
:100AD800DE000D0A007361672073656E736F723DE7
:100AE80000736F6C2073656E736F723D005F5F5F9C
:100AF8005F5F5F5F5F5F5F5F5F5F5F5F5F5F5F5FFE
:080B08005F5F5F5F5F5F0000AB
:107E0000112484B714BE81FFF0D085E080938100F7
:107E100082E08093C00088E18093C10086E0809377
:107E2000C20080E18093C4008EE0C9D0259A86E02C
:107E300020E33CEF91E0309385002093840096BBD3
:107E4000B09BFECF1D9AA8958150A9F7CC24DD24C4
:107E500088248394B5E0AB2EA1E19A2EF3E0BF2EE7
:107E6000A2D0813461F49FD0082FAFD0023811F036
:107E7000013811F484E001C083E08DD089C08234E0
:107E800011F484E103C0853419F485E0A6D080C0E4
:107E9000853579F488D0E82EFF2485D0082F10E0AE
:107EA000102F00270E291F29000F111F8ED06801E7
:107EB0006FC0863521F484E090D080E0DECF843638
:107EC00009F040C070D06FD0082F6DD080E0C81688
:107ED00080E7D80618F4F601B7BEE895C0E0D1E017
:107EE00062D089930C17E1F7F0E0CF16F0E7DF06D8
:107EF00018F0F601B7BEE89568D007B600FCFDCFD4
:107F0000A601A0E0B1E02C9130E011968C91119780
:107F100090E0982F8827822B932B1296FA010C0160
:107F200087BEE89511244E5F5F4FF1E0A038BF0790
:107F300051F7F601A7BEE89507B600FCFDCF97BE46
:107F4000E89526C08437B1F42ED02DD0F82E2BD052
:107F50003CD0F601EF2C8F010F5F1F4F84911BD097
:107F6000EA94F801C1F70894C11CD11CFA94CF0C13
:107F7000D11C0EC0853739F428D08EE10CD085E9AC
:107F80000AD08FE07ACF813511F488E018D01DD067
:107F900080E101D065CF982F8091C00085FFFCCF94
:107FA0009093C60008958091C00087FFFCCF809118
:107FB000C00084FD01C0A8958091C6000895E0E648
:107FC000F0E098E1908380830895EDDF803219F02E
:107FD00088E0F5DFFFCF84E1DECF1F93182FE3DFCA
:107FE0001150E9F7F2DF1F91089580E0E8DFEE27F6
:047FF000FF270994CA
:027FFE00040479
:0400000300007E007B
:00000001FF
